8=FIX.4.4|9=204|35=D|57=0|50=9A95|56=XTAI|49=T9A8FO1|34=5520|52=20181024-03:06:06.587|59=0|10001=0|38=26|40=2|44=0001.16|1=0006666|60=20181024-03:06:06.587|10004=N|37=y00lw|55=2357|54=1|10000=1|10002=0|11=1R2.1vE     |10=086|
8=FIX.4.4|9=204|35=D|57=0|50=9A95|56=XTAI|49=T9A8FO1|34=5520|52=20181024-03:06:06.587|59=0|10001=0|38=26|40=2|44=0001.16|1=0006666|60=20181024-03:06:06.587|10004=N|37=y00lw|55=2357|54=1|10000=1|10002=0|11=1R2.1vE     |10=086|
8=FIX.4.4|9=204|35=D|57=0|50=9A95|56=XTAI|49=T9A8FO1|34=5520|52=20181024-03:06:06.587|59=0|10001=0|38=26|40=2|44=0001.16|1=0006666|60=20181024-03:06:06.587|10004=N|37=y00lw|55=2357|54=1|10000=1|10002=0|11=1R2.1vE     |10=086|
8=FIX.4.4|9=204|35=D|57=0|50=9A95|56=XTAI|49=T9A8FO1|34=5520|52=20181024-03:06:06.587|59=0|10001=0|38=26|40=2|44=0001.16|1=0006666|60=20181024-03:06:06.587|10004=N|37=y00lw|55=2357|54=1|10000=1|10002=0|11=1R2.1vE     |10=086|
